:100000000C9428000C9445000C9445000C94450079
:100010000C9445000C9445000C9445000C94650F1D
:100020000C9445000C9445000C9445000C9445003C
:100030000C9445000C946E010C9431010C94450015
:100040000C9445000C9445000C9445000C9445001C
:1000500011241FBECFE5D8E0DEBFCDBF10E0A0E683
:10006000B0E0ECE6F6E202C005900D92A23BB107CB
:10007000D9F717E0A2EBB0E001C01D92A533B1079C
:10008000E1F70E944A000C9434130C9400000E9483
:10009000B30C0895AF92BF92CF92DF92EF92FF928E
:1000A0000F93DF93CF930F92CDB7DEB7CE010196BA
:1000B00060E570E041E050E00E94171369816F5FD6
:1000C000698380E590E00E9427130E94DA0080E0B7
:1000D0000E94F21082E040E056E960E070E024E027
:1000E0000E94E71182E00E941F110E9462038AE9C8
:1000F00090E060E670E045E550E020E030E003E0AD
:10010000EE24FF24CC24DD24AA24BB240E94D5069F
:1001100083E00E94C40F0E94F90780E090E00F90F6
:10012000CF91DF910F91FF90EF90DF90CF90BF9034
:10013000AF9008951F9311E088EB9BE00E94E305C8
:1001400020916600309167004091680050916900ED
:10015000DA01C901880F991FAA1FBB1F820F931FC5
:10016000A41FB51F8093660090936700A09368005A
:10017000B09369000E94EB10813011F01093B2002F
:100180000E94E011813011F01093B2000E94121110
:10019000813011F01093B2000E941602813011F0EC
:1001A0001093B2008091B200882331F687E00E945C
:1001B000E200C2CF8FEF80936A0087BB80916A0014
:1001C00088BB08951F93282F8830E8F481E090E0E1
:1001D00002C0880F991F2A95E2F7182F0E948C03FE
:1001E00080916A00812329F080916A00109518237C
:1001F00003C080916A00182B10936A0080916A00F6
:1002000088BB0E9468051F9108950F931F93282FA4
:10021000062F8830D8F481E090E002C0880F991F43
:100220002A95E2F7182F0E948C03013029F480915F
:100230006A001095182303C080916A00182B109350
:100240006A0080916A0088BB0E9468051F910F9127
:1002500008950FB6F8940F92559857980F900FBEC7
:1002600008951F920F920FB60F9211242F933F9370
:100270004F935F936F937F938F939F93AF93BF93AE
:10028000EF93FF93DF93CF9300D0CDB7DEB780918C
:10029000B5009091B600BE016F5F7F4FAE014E5F1B
:1002A0005F4F0E946409813019F489818CB901C0C3
:1002B00055980F900F90CF91DF91FF91EF91BF91E3
:1002C000AF919F918F917F916F915F914F913F91EE
:1002D0002F910F900FBE0F901F9018951F920F92A5
:1002E0000FB60F9211242F933F934F935F936F9309
:1002F0007F938F939F93AF93BF93EF93FF93DF937E
:10030000CF9300D0CDB7DEB71A828CB189838091AC
:10031000B3009091B400BE016F5F7F4FAE014E5F9E
:100320005F4F20E00E94A7098A81882311F00E9474
:10033000680F0F900F90CF91DF91FF91EF91BF91D8
:10034000AF919F918F917F916F915F914F913F916D
:100350002F910F900FBE0F901F901895DF93CF93A2
:100360000F92CDB7DEB769838091B5009091B6004A
:10037000BE016F5F7F4F20E00E94DF0A813011F0E5
:1003800080E002C0559A81E00F90CF91DF910895EF
:100390008091B3009091B40020E00E94130A811173
:1003A00081E00895DF92EF92FF920F931F937B01FC
:1003B0008C01D42E0FB6F8940F92842F61E040E0A8
:1003C0000E94C50B9093B4008093B3008D2D61E023
:1003D00040E00E94C50B9093B6008093B50094E076
:1003E000EE0CFF1C001F111F9A95D1F760E072E11F
:1003F0008AE790E0A80197010E94BB12215030408B
:100400004040504029B9232F342F452F552720BD78
:1004100088E98AB986E880BD0F900FBE80E090E041
:100420001F910F91FF90EF90DF90089590E08091E1
:10043000B700882309F491E0892F0895F5E00F2E85
:10044000F6E01F2EF7E02F2EF8E03F2EF9E04F2EBA
:10045000FAE05F2EFBE06F2EFCE07F2EFDE08F2E9A
:10046000FEE09F2EFFE0AF2EF0E1BF2EF1E1CF2E98
:10047000F2E1DF2EF3E1EF2EF4E1FF2E05E116E1CC
:1004800027E138E149E15AE16BE17CE18DE19EE150
:10049000AFE1B0E2E1E2F5E0F0110092B700F6E082
:1004A000F1110092B700F7E0F2110092B700F8E006
:1004B000F3110092B700F9E0F4110092B700FAE0EE
:1004C000F5110092B700FBE0F6110092B700FCE0D6
:1004D000F7110092B700FDE0F8110092B700FEE0BE
:1004E000F9110092B700FFE0FA110092B700F0E1B5
:1004F000FB110092B700F1E1FC110092B700F2E1AC
:10050000FD110092B700F3E1FE110092B700F4E193
:10051000FF110092B700F5E1F0130092B700F6E189
:10052000F1130092B700F7E1F2130092B700F8E17F
:10053000F3130092B700F9E1F4130092B700FAE167
:10054000F5130092B700FBE1F6130092B700FCE14F
:10055000F7130092B700FDE1F8130092B700FEE137
:10056000F9130092B700FFE1FA130092B700F0E22E
:10057000FB130092B700F1E2FE130092B7005ECFCA
:10058000F1E00F2EF2E01F2EF3E02F2EF4E03F2ECD
:10059000F5E04F2EF6E05F2EF7E06F2EF8E07F2EAD
:1005A000F9E08F2EFAE09F2EFBE0AF2EFCE0BF2E8D
:1005B000FDE0CF2EFEE0DF2EFFE0EF2EF0E1FF2E7C
:1005C00001E112E123E134E145E156E167E178E13F
:1005D00089E19AE1ABE1BCE1EDE1F1E0F0110092DB
:1005E000B700F2E0F1110092B700F3E0F2110092CF
:1005F000B700F4E0F3110092B700F5E0F4110092B7
:10060000B700F6E0F5110092B700F7E0F61100929E
:10061000B700F8E0F7110092B700F9E0F811009286
:10062000B700FAE0F9110092B700FBE0FA1100926E
:10063000B700FCE0FB110092B700FDE0FC11009256
:10064000B700FEE0FD110092B700FFE0FE1100923E
:10065000B700F0E1FF110092B700F1E1F013009252
:10066000B700F2E1F1130092B700F3E1F213009248
:10067000B700F4E1F3130092B700F5E1F413009230
:10068000B700F6E1F5130092B700F7E1F613009218
:10069000B700F8E1F7130092B700F9E1F813009200
:1006A000B700FAE1F9130092B700FBE1FA130092E8
:1006B000B700FCE1FB130092B700FDE1FE130092CE
:1006C000B7005ECFAF92BF92CF92DF92EF92FF92D0
:1006D0000F938EE192E06BE670E045E550E020E09C
:1006E00030E000E0EE24FF24CC24DD24AA24BB2447
:1006F0000E94D50680EC92E060E770E045E550E0AE
:1007000020E030E00E94D5060F91FF90EF90DF903F
:10071000CF90BF90AF9008958091BE008F5F80937F
:10072000BE0008950FB6F8940F922091BC0030914E
:10073000BD000F900FBEC90108952091BC003091FB
:10074000BD00C90108958091C10008958091BE0047
:10075000882351F081E08093BA0008958091BF0012
:1007600081508093BF0001C099E0E091BF00E99FF4
:10077000F0011124EA53FF4F8081882379F390918F
:10078000BF0089E0989FD0011124AA53BF4F119652
:10079000ED91FC9112970280F381E02D1296FC936B
:1007A000EE931197CD010396E817F90731F4828192
:1007B000938112969C938E9311971196ED91FC91D3
:1007C0001297868197819093B9008093B80008951D
:1007D000FC018091BB0080838091BC009091BD00A2
:1007E000928381830895FC01DB010FB6F8940F9288
:1007F0009091BB008081981749F02091BC00309106
:10080000BD00818192812817390718F58091BC00BD
:100810009091BD00218132814D915C911197821B95
:10082000930B84179507A8F48091BC009091BD00AC
:10083000281B390B240F351F2D933C938091BB004F
:1008400080838091BC009091BD009283818380E081
:1008500001C081E00F900FBE089581E08093BA003F
:1008600008950F931F93CF93DF93FC010580F681CA
:10087000E02D06811781E8012C96CE010E94630CC1
:100880008091BE008823A9F4E8012296CE010E943F
:10089000630CD80156969C918091BF00891710F483
:1008A0009093BF0089E0989FC00111248A539F4F05
:1008B00002C080E091E0BE010E94050CE091B8000A
:1008C000F091B90020E0D80156969C91868998173E
:1008D00008F021E0822FDF91CF911F910F910895B1
:1008E000FF920F931F93CF93DF938091BE008823D5
:1008F00009F08FC08091BC009091BD00019690934B
:10090000BD008093BC008091BC009091BD00892BFC
:1009100079F52091FC003091FD008091FE009091CE
:10092000FF009093FD008093FC003093FF00209324
:10093000FE008091BB008F5F8093BB00E091FC00C4
:10094000F091FD008081882319F48FEF9FEF0CC098
:10095000E091FC00F091FD000580F681E02D06801D
:10096000F781E02D8281938190937B0080937A00C0
:100970002091BC003091BD0080917A0090917B0065
:100980002817390708F44AC089E0F82EE091FC00E6
:10099000F091FD008081882339F48FEF9FEF9093D1
:1009A0007B0080937A003AC0E091FC00F091FD005A
:1009B0000580F681E02DC681D7812A813B81809117
:1009C000BC009091BD008217930728F430937B0000
:1009D00020937A0023C08E010E5F1F4FC8010E9432
:1009E000630C8C899D89892B21F0CE010C960E9485
:1009F000630C9E898091BF00891710F49093BF000B
:100A00009F9DC00111248A539F4FB8010E94050C7D
:100A1000BDCF8091C0008F5F8093C000DF91CF91E8
:100A20001F910F91FF900895CF93DF93EC01E09118
:100A3000B800F091B900938382838091BC009091BB
:100A4000BD00C817D90768F48091FE009091FF009F
:100A50006091B8007091B9006E5F7F4F0E942E0CBC
:100A600017C08091FC009091FD006091B8007091DA
:100A7000B9006E5F7F4F0E942E0C80917A0090919A
:100A80007B00C817D90720F4D0937B00C0937A006D
:100A9000DF91CF9108950F931F938B016091B80060
:100AA0007091B900645F7F4F0E942E0C8091B80056
:100AB0009091B90002960E94630C8091BC009091C5
:100AC000BD00800F911F0E9414051F910F91089582
:100AD000CF92DF92FF920F931F93DF93CF930F92EA
:100AE000CDB7DEB70FB6F8940F928091BE0081505B
:100AF0008093BE008091BE00882309F058C0809189
:100B0000C100882309F453C0198299E0F92E2DC041
:100B1000E0910501F0910601C680D780C6010C96D0
:100B20000E94630C86010E5F1F4FC8010E94630C78
:100B3000D60156969C918091BF00891710F490932E
:100B4000BF009F9DC00111248A539F4FB8010E948E
:100B5000050CE091B800F091B900D60156969C9131
:100B60008689981710F0B1E0B9838091000188233D
:100B700079F68091C000882341F40CC00E94700473
:100B80008091C00081508093C0008091C000882374
:100B9000A9F707C0E981E13021F08091BA008130E6
:100BA00031F41092BA000E94680F81E001C080E029
:100BB0000F900FBE0F90CF91DF911F910F91FF907B
:100BC000DF90CF9008950F931F93CF93DF93EC01A5
:100BD0000097C9F08091BE008F5F8093BE000091A6
:100BE000BC001091BD008091B8009091B9000296B0
:100BF0000E94630CCE01800F911F0E9414050E9479
:100C00006805882311F40E94680FDF91CF911F912E
:100C10000F910895CF93DF93FC01EB018091BE000B
:100C20008F5F8093BE0020813181C20FD31F8091DE
:100C3000BC009091BD008217930728F4C217D30718
:100C400028F020E00CC0C217D30740F08091BC0010
:100C50009091BD0020E08C179D0708F421E0D1831E
:100C6000C083222351F08091B8009091B900029680
:100C70000E94630CCE010E9414050E94680588231F
:100C800011F40E94680FDF91CF910895EF92FF92C7
:100C90000F931F93CF93DF938C010FB6F8940F92AD
:100CA0008091B8009091B9000817190719F400E075
:100CB00010E003C00115110529F4C091B800D091CE
:100CC000B90001C0E80122E0E22EF12CEC0EFD1E7D
:100CD000C7010E94630C8C899D89892B21F0CE016C
:100CE0000C960E94630C89E091E0B7010E94050C0C
:100CF0008091C3008F5F8093C3008091C4008F5F99
:100D00008093C4000F900FBE8091C200882321F011
:100D1000012B11F40E94680FDF91CF911F910F9169
:100D2000FF90EF900895F8941092C2000E94090F6E
:100D300008950F931F932CC08091BE008F5F809306
:100D4000BE00109109010E946805112309F10FB638
:100D5000F8940F92E0910E01F0910F010681178136
:100D6000C80102960E94630C8091C100815080935B
:100D7000C1008091C30081508093C3000F900FBECB
:100D8000F8018789908D0E944A0EC8010E944A0E80
:100D90008091C300882381F68091C600823010F0D4
:100DA0000E94680F0E944700F3CF2F923F925F92FC
:100DB0006F927F928F929F92AF92BF92CF92DF926B
:100DC000EF92FF920F931F93DF93CF9300D000D049
:100DD000CDB7DEB79A8389834B015A011901502E92
:100DE000370181E290E00E945A0E8B839C838B81B5
:100DF0009C81892B89F0C114D10421F4C5010E9482
:100E00005A0E6C01EB81FC81D08EC78AC114D104CB
:100E100029F4CF010E944A0E8FEFD5C0C60165EAC2
:100E200070E0A5010E9401130894A108B108EB81AC
:100E3000FC81E788F08CEA0CFB1CCF014996B401D9
:100E400048E050E00E940813EB81FC8110A2052DC0
:100E5000F3E0F51508F403E0EB81FC81068B42E03A
:100E6000C42ED12CCE0EDF1EC6010E94010C8B8138
:100E70009C810C960E94010C8B819C81FC019187C6
:100E8000808784E090E0801B910995878487F38BAD
:100E9000E28BC70169817A81A1010E948C0EEB81EE
:100EA000FC81918380836114710421F0CF01F301EF
:100EB000918380830FB6F8940F928091C1008F5F69
:100EC0008093C1008091B8009091B900892BB9F549
:100ED000EB81FC81F093B900E093B8008091C100F0
:100EE0008130F1F586EC90E00E94F10B8FEC90E000
:100EF0000E94F10B88ED90E00E94F10B81EE90E0F2
:100F00000E94F10B3AEEE32E30E0F32EC7010E946F
:100F1000F10B03EF10E0C8010E94F10B80E091E0BB
:100F20000E94F10B89E091E00E94F10BF092FD002C
:100F3000E092FC001093FF000093FE0011C080912E
:100F4000C200882369F4E091B800F091B900868965
:100F5000581630F08B819C819093B9008093B80033
:100F6000EB81FC8196898091C500891710F49093DC
:100F7000C5008091C4008F5F8093C400EB81FC8129
:100F800096898091BF00891710F49093BF00EB8180
:100F9000FC81868929E0829FC00111248A539F4FDA
:100FA000B6010E94050C0F900FBE8091C2008823ED
:100FB00049F0E091B800F091B9008689851510F4E8
:100FC0000E94680F81E00F900F900F900F90CF91CB
:100FD000DF911F910F91FF90EF90DF90CF90BF9026
:100FE000AF909F908F907F906F905F903F902F90E9
:100FF0000895AF92BF92CF92DF92EF92FF920F933C
:1010000089E996E065E770E045E550E020E030E0F2
:1010100000E0EE24FF24CC24DD24AA24BB240E947B
:10102000D506813049F4F8948093C2001092BD0037
:101030001092BC000E94D40E0F91FF90EF90DF90B1
:10104000CF90BF90AF9008950FB6F8940F92FC0127
:10105000828D0F900FBE0895FC01828D0895FC01D2
:10106000828D90E0882309F491E0892F0895FC0196
:10107000928D20E0838D981709F421E0822F089546
:10108000CF93DF93EC01842F4C8D4423A1F188236F
:10109000B1F48C819D8150E00E94F8128C8D2C81DE
:1010A0003D81280F311D3D832C838A819B81281728
:1010B000390708F1888199819D838C831CC08E81BA
:1010C0009F8150E00E94F8128C8D90E044275527B4
:1010D000481B590B8E819F81840F951F9F838E83A0
:1010E000288139818217930730F48A819B81840F8C
:1010F000951F9F838E838A8D8F5F8A8FDF91CF911B
:1011000008950F931F93CF93DF93FB018A01EC01A6
:101110008A8D882361F18C8D2E813F81280F311DAE
:101120003F832E838A819B812817390720F088818D
:1011300099819F838E838A8D81508A8F4C8D6E8199
:101140007F81CF0150E00E94F812F801808188234E
:1011500069F48885882351F0CE0108960E948C0C92
:10116000882321F081E0F801808301C081E0DF91D4
:10117000CF911F910F9108951F93CF93DF93142F59
:10118000EC019A8D8B8D981788F4CE0140E00E9477
:101190004008112359F48989882341F0CE014196F2
:1011A0000E948C0C482F811141E0142F812FDF9178
:1011B000CF911F910895CF93DF93FB01EC01F89439
:1011C0008A8D882371F44115510541F06196CA0159
:1011D000BE010E94930D78948CEF2FC0789480E02C
:1011E0002CC07894F8948A8D882331F18C8D2E81CF
:1011F0003F81280F311D3F832E838A819B812817D1
:10120000390720F0888199819F838E838A8D815050
:101210008A8F4C8D6E817F81CF0150E00E94F81241
:101220008885882341F0CE0108960E948C0C882383
:1012300011F08BEF01C081E07894DF91CF91089598
:10124000CF93DF93EC01F8940FB6F8940F928A8D48
:101250009B8D0F900FBE891771F44115510541F018
:101260002896CA01BE010E94930D78948CEF1BC092
:10127000789480E018C07894F8948A8D891710F0DB
:1012800080E010C0CE0140E00E9440088989882398
:1012900041F0CE0141960E948C0C882311F08BEF17
:1012A00001C081E07894DF91CF9108950F931F934F
:1012B0008C01FC01808191810E944A0EC8010E942C
:1012C0004A0E1F910F9108950F931F93CF93DF93B1
:1012D000FB018A01EC018A8D8823A1F148815981A3
:1012E00041155105A9F08C8D2E813F81280F311DAC
:1012F0003F832E838A819B812817390710F05F83F3
:101300004E834C8D6E817F81CF0150E00E94F81298
:101310008A8D81508A8F8D8D8F3F81F488858823B7
:1013200081F0CE0108960E943104882351F0011506
:10133000110539F081E0F801808304C08D8D8F5F45
:101340008D8F81E0DF91CF911F910F9108950F93C1
:101350001F93CF93DF938A01EC019A8D8B8D9817A1
:1013600010F080E01BC0CE01422F0E9440088E8DFD
:101370008F3F81F48989882381F0CE0141960E94B4
:101380003104882351F00115110539F081E0F8018D
:10139000808304C08E8D8F5F8E8F81E0DF91CF912F
:1013A0001F910F9108950F931F93CF93DF93EC013B
:1013B0000FB6F8940F928C010F5E1F4F0DC08989F4
:1013C000882369F0C8010E943104882311F00E942B
:1013D0002D048E8D81508E8F8E8D181684F38FEF95
:1013E0008E8F0F900FBE0FB6F8940F928E01085F8C
:1013F0001F4F0DC08885882369F0C8010E94310401
:10140000882311F00E942D048D8D81508D8F8D8D3C
:10141000181684F38FEF8D8F0F900FBEDF91CF9151
:101420001F910F9108957F928F929F92AF92BF92DA
:10143000CF92DF92EF92FF920F931F93DF93CF93A0
:1014400000D000D00F92CDB7DEB7962E872E5D83E9
:101450004C83722E8C0191E1C92ED12CC00ED11E6D
:1014600020E07E010894E11CF11C84E0A82EB12C40
:10147000AC0EBD1E01C021E00FB6F8940F92F8012A
:10148000828D882309F43EC0E680F7804081518137
:1014900041155105B1F0848D9701280F311D378317
:1014A0002683828193812817390710F0578346835A
:1014B000F801448D66817781892D982D50E00E9436
:1014C000F812772071F4F801828D8150828F808527
:1014D0008823A1F0C80108960E943104813071F47C
:1014E0000BC0F801F782E6828189882339F0C601B2
:1014F0000E943104882311F00E94680F0F900FBEE4
:1015000081E04AC08C819D81892B19F40F900FBE18
:1015100042C0222319F4C7010E94E8030F900FBEB6
:101520000E948C030FB6F8940F92F801858D8F3FBF
:1015300009F4158EF801868D8F3F09F4168E0F90F1
:101540000FBEC701B5010E94F3038823F9F40FB65B
:10155000F8940F92F801828D0F900FBE882381F4CA
:101560006C817D81C6010E944B05C8010E94D30990
:101570000E946805882309F07ECF0E94680F7BCF08
:10158000C8010E94D3090E94680575CFC8010E9456
:10159000D3090E94680580E00F900F900F900F9084
:1015A0000F90CF91DF911F910F91FF90EF90DF90FF
:1015B000CF90BF90AF909F908F907F9008957F9233
:1015C0008F929F92AF92BF92CF92DF92EF92FF9253
:1015D0000F931F93DF93CF9300D000D00F92CDB71E
:1015E000DEB76B015D834C83722E8C0148E0E42EE4
:1015F000F12CE80EF91E20E05E010894A11CB11C3C
:1016000034E0832E912C8C0E9D1E01C021E00FB67C
:10161000F8940F92F801928D838D9817A8F4C80161
:10162000B601472D0E944008F8018189882341F0C6
:10163000C80141960E943104813011F40E94680F64
:101640000F900FBE81E04CC08C819D81892B19F4D5
:101650000F900FBE44C0222319F4C5010E94E80375
:101660000F900FBE0E948C030FB6F8940F92F801F2
:10167000858D8F3F09F4158EF801868D8F3F09F413
:10168000168E0F900FBEC501B4010E94F30388238C
:1016900009F50FB6F8940F92F801928D0F900FBED6
:1016A000F801838D981781F46C817D81C7010E94B8
:1016B0004B05C8010E94D3090E946805882309F0E0
:1016C000A5CF0E94680FA2CFC8010E94D3090E9433
:1016D00068059CCFC8010E94D3090E94680580E07C
:1016E0000F900F900F900F900F90CF91DF911F915F
:1016F0000F91FF90EF90DF90CF90BF90AF909F90B1
:101700008F907F900895CF93DF93EC010FB6F894FC
:101710000F92EC8D2B8DE29FC001112448815981DD
:10172000840F951F9B838A831A8E5D834C8330E0E0
:1017300021503040F0E02E9FC0012F9F900D3E9F22
:10174000900D1124480F591F5F834E838FEF8D8FAB
:101750008E8F662361F48885882389F0CE010896F0
:101760000E943104813059F40E94680F08C0CE01F4
:1017700008960E94F10BCE0141960E94F10B0F904A
:101780000FBE81E0DF91CF9108950F931F93CF9308
:10179000DF93182F062F8823E1F08FE190E00E945D
:1017A0005A0EEC010097A9F0019FC0011124019687
:1017B0000E945A0E99838883009741F01B8F0C8FEB
:1017C000CE0161E00E94830B9E0105C0CE010E9404
:1017D0004A0E20E030E0C901DF91CF911F910F91B7
:1017E0000895FC019C012D5F3F4F328321838FEFD1
:1017F0009FEF9483838336832583308727831082EA
:101800000895FC01118610860895CF93DF93AC01F3
:10181000DB01EC0129813A81F901828193811396E0
:101820009C938E93129789819A8115969C938E939F
:1018300014970280F381E02D75836483E9017B8333
:101840006A83FA017283618319965C934E931897A9
:1018500080818F5F8083DF91CF910895CF93DF9355
:101860009C01EB01488159818FEF4F3F580721F4CC
:10187000F901A781B08510C0D901139604C0129652
:101880000D90BC91A02D1296ED91FC911397808143
:1018900091814817590798F71296ED91FC9113978B
:1018A000FB83EA83D583C483BD83AC831396DC9327
:1018B000CE93129739872887F90180818F5F8083C3
:1018C000DF91CF910895CF93DF93DC011296ED91D4
:1018D000FC91139714968D919C9115979583848311
:1018E0001496CD91DC911597FB83EA831896ED91C0
:1018F000FC911997818192818A179B0711F4D283F9
:10190000C18319961C921E92189780818150808302
:101910008081DF91CF910895EF92FF920F931F93F3
:10192000FC010580F681E02DE680F7808701045FE9
:101930001F4FC8010E94630C83E491E0B8010E942C
:10194000050C20E0E0911201F0911301D7015696A9
:101950009C918689981708F021E0822F1F910F91A2
:10196000FF90EF900895FF920F931F93CF93DF9313
:1019700099E0F92E21C0F894E0914801F0914901D5
:1019800006811781C8010C960E94630C7894E801C7
:101990002296CE010E94630CF80196898091140171
:1019A000891710F4909314019F9DC0011124855E46
:1019B0009E4FBE010E94050C809143018823D9F6F9
:1019C0000E9492032091150130911601821B930B06
:1019D000909318018093170189E0F82E53C0019667
:1019E00090931A01809319012150304030931801CF
:1019F00020931701892B09F03EC020913F013091BF
:101A00004001809141019091420190934001809367
:101A10003F0130934201209341012DC00580F681A2
:101A2000E02DC681D7812091190130911A018A8158
:101A30009B812817390730F1F8948E010E5F1F4FF4
:101A4000C8010E94630C8C899D89892B21F0CE01ED
:101A50000C960E94630C78949E89809114018917DA
:101A600010F4909314019F9DC0011124855E9E4F38
:101A7000B8010E94050CE0913F01F0914001808186
:101A8000882361F620911701309118018091190186
:101A900090911A012115310509F0A1CF90931601FB
:101AA000809315019091140129E006C0992319F43F
:101AB0001092140132C09150929FD0011124A55E62
:101AC000BE4F8C91882391F3909314011196ED9160
:101AD000FC9112970280F381E02D1296FC93EE9315
:101AE0001197CD010396E817F90731F482819381AC
:101AF00012969C938E9311971196ED91FC911297EB
:101B00000680F781E02DF0931301E093120120810C
:101B10003181CF016789F9010995DF91CF911F913B
:101B20000F91FF9008950F931F93CF93DF93EB01D5
:101B30000091190110911A01080F191F80911201CB
:101B40009091130102960E94630CE0911201F091B2
:101B50001301138302838091190190911A01BF012F
:101B60006E5F7F4F0817190728F48091410190910B
:101B7000420104C080913F01909140010E942E0CCF
:101B8000209749F06091120170911301645F7F4FBB
:101B9000CE010E942E0CDF91CF911F910F910895DD
:101BA000AF92BF92CF92DF92EF92FF920F931F936B
:101BB000CF93DF936C01B62EA42E8AE190E00E94B1
:101BC0005A0EEC01009711F48FEF59C08091120169
:101BD00090911301892B21F5D0931301C093120129
:101BE0008BE191E00E94F10B84E291E00E94F10B05
:101BF0002DE2E22E21E0F22EC7010E94F10B06E356
:101C000011E0C8010E94F10B83E491E00E94F10B06
:101C1000F0924001E0923F01109342010093410194
:101C2000EB2CBB2011F0EE24E394198E188EEE8A73
:101C3000AF8AFE01C192D1928F01CF010E94010CA7
:101C4000CE010C960E94010CD987C887DB8BCA8B0A
:101C500084E090E08E1991099D878C879E89809100
:101C60001401891710F49093140189E0989FC00122
:101C70001124855E9E4FB8010E94050C81E0DF9122
:101C8000CF911F910F91FF90EF90DF90CF90BF9079
:101C9000AF900895089510924D0110924C0108954F
:101CA0002BED35E080914C0190914D01281B390BB3
:101CB000C9010895CF93DF93EC010E948C038091BA
:101CC0004E0190914F01892B31F481E591E0909381
:101CD0004F0180934E0120914C0130914D01CE0176
:101CE000820F931F45E08B3D940770F42817390746
:101CF00058F4C0914E01D0914F01C20FD31F909361
:101D00004D0180934C0102C0C0E0D0E00E94680504
:101D1000CE01DF91CF910895FC0191E1908322E201
:101D2000229383E3829362937293129280E8829368
:101D3000129282E0829383E0829384E0829385E032
:101D4000829386E0829387E0829388E0829389E0A1
:101D5000829380E18293929382E1829383E18293E2
:101D600084E1829385E1829386E1829387E1829385
:101D700088E1829389E1829380E2829381E2829377
:101D8000229383E282934293529386E2829387E284
:101D9000829388E2829389E2829380E3829381E353
:101DA00082933197CF0108951BBC8CE78ABD8BE0ED
:101DB0008EBD89B7806189BFA091B800B091B9008C
:101DC000CD91CDBFDD91DEBFFF91EF91DF91CF913E
:101DD000BF91AF919F918F917F916F915F914F9143
:101DE0003F912F911F910F91FF90EF90DF90CF9037
:101DF000BF90AF909F908F907F906F905F904F902B
:101E00003F902F901F900F900FBE0F90089581E08C
:101E1000089508950F920FB6F8940F921F9211240F
:101E20002F923F924F925F926F927F928F929F92EA
:101E3000AF92BF92CF92DF92EF92FF920F931F93D8
:101E40002F933F934F935F936F937F938F939F93C2
:101E5000AF93BF93CF93DF93EF93FF93A091B8001D
:101E6000B091B9000DB60D920EB60D920E9470049D
:101E70000E94A603A091B800B091B900CD91CDBF4A
:101E8000DD91DEBFFF91EF91DF91CF91BF91AF91D7
:101E90009F918F917F916F915F914F913F912F9182
:101EA0001F910F91FF90EF90DF90CF90BF90AF9078
:101EB0009F908F907F906F905F904F903F902F906A
:101EC0001F900F900FBE0F9008950E940A0F189553
:101ED0000F920FB6F8940F921F9211242F923F92F7
:101EE0004F925F926F927F928F929F92AF92BF922A
:101EF000CF92DF92EF92FF920F931F932F933F9316
:101F00004F935F936F937F938F939F93AF93BF9301
:101F1000CF93DF93EF93FF93A091B800B091B900F6
:101F20000DB60D920EB60D920E94A603A091B800B8
:101F3000B091B900CD91CDBFDD91DEBFFF91EF91A2
:101F4000DF91CF91BF91AF919F918F917F916F91D1
:101F50005F914F913F912F911F910F91FF90EF90C3
:101F6000DF90CF90BF90AF909F908F907F906F90B9
:101F70005F904F903F902F901F900F900FBE0F904B
:101F8000089580917C0008950F931F93082F893046
:101F900008F008E081E061E040E00E94C50B90930A
:101FA0002D0780932C07892B89F010E007C080E370
:101FB00090E160E0412F0E94D00D1F5F1017B8F331
:101FC00089EE9FE061E040E00E94D00D1F910F91EB
:101FD00008950F931F93DF93CF930F92CDB7DEB782
:101FE0008C01FC01808D918DF1E08C3C9F07B1F05C
:101FF00021E08D3C920751F1892B61F580912C07EE
:1020000090912D07BE016F5F7F4F4FEF5FEF0E94F2
:10201000DB088C3F71F48CEC91E00FC080912C07B1
:1020200090912D07BE016F5F7F4F40E050E00E940E
:10203000DB088B3F31F48DEC91E0F801918F808FBC
:1020400009C0813019F010927C00D8CF89810E949C
:10205000E200D4CF0F90CF91DF911F910F9108959F
:102060000F931F93DF93CF930F92CDB7DEB76983A2
:102070008C01FC01808D918DF1E08C389F07F1F08F
:1020800021E08D38920718F4892B41F03EC0E1E041
:102090008D389E0739F1805A9140B9F580912C070F
:1020A00090912D07BE016F5F7F4F40E050E00E948E
:1020B00020098C3F71F48CE891E024C080912C07BA
:1020C00090912D07BE016F5F7F4F40E050E00E946E
:1020D00020098B3F19F48DE891E014C0813011F094
:1020E00010927C00E981F0E0EE0FFF1FE358FF4FF4
:1020F00080819181009721F060E070E00E94930D53
:1021000080EA91E0F801918F808F0F90CF91DF915D
:102110001F910F9108959F92AF92BF92CF92DF923D
:10212000EF92FF920F931F93DF93CF9300D000D0D5
:10213000CDB7DEB78C01EE24FF249BE7A92EB12C8E
:10214000C12CD12C9924939403C081E0E82EF12C6A
:10215000A982BA82CB82DC8289819A81AB81BC81DF
:10216000895B9B46AC4FBF4F89839A83AB83BC830B
:1021700069817A818B819C812DEF3FEF4FEF5FEF7B
:102180000E94881269837A838B839C8369817A8118
:102190008B819C8127E030E040E050E00E94DD121E
:1021A000C901DA0189839A83AB83BC8389819A81CF
:1021B000AB81BC818B519747AE4FBF4F31F6E114D5
:1021C000F10409F0C2CF0FB6F8940F92F801908293
:1021D0000F900FBEBDCF80912E0710922E07811158
:1021E00081E00895AF92BF92CF92DF92EF92FF927B
:1021F0000F93082F8BE890E16DE870E045E550E023
:102200002EE237E0EE24FF24CC24DD24AA24BB24D4
:102210000E94D5060F91FF90EF90DF90CF90BF9076
:10222000AF90089580912F07882321F08091300787
:10223000811181E010922F071092300708958F923C
:102240009F92AF92BF92CF92DF92EF92FF920F9345
:102250001F93182F8AE062E040E00E94C50B909324
:1022600032078093310781E3882E87E0982E87E933
:1022700091E165E970E045E550E09401012FEE241D
:10228000FF24CC24DD24AA24BB240E94D5068BE5A0
:1022900091E16DE970E045E550E094010E94D506BA
:1022A0001F910F91FF90EF90DF90CF90BF90AF9074
:1022B0009F908F900895CF92DF92EF92FF920F93AD
:1022C0001F93DF93CF9300D0CDB7DEB77C011A8286
:1022D000198200E010E06E010894C11CD11C1FC0DF
:1022E000F70180819181B60140E050E020E00E943A
:1022F000DF0A813011F001E011C0002351F40FB664
:10230000F8940F92809130078F5F809330070F9081
:102310000FBE89819A8101969A8389831F5F13304A
:10232000FCF288EC90E00E94E30510E0D9CF9F9288
:10233000AF92BF92CF92DF92EF92FF920F931F93D3
:10234000DF93CF9300D0CDB7DEB7982EC92EEE2401
:10235000FF24DD245E010894A11CB11C23C0F801F8
:1023600080819181B50140E050E020E00E94130A95
:102370008130C1F429813A812E153F0519F0DD2401
:10238000D3940CC0DD2051F40FB6F8940F928091D5
:102390002F078F5F80932F070F900FBE790108944E
:1023A000E11CF11C092D1C2DF801808191810E94F6
:1023B00024088823A1F684EB90E00E94E305F2CF85
:1023C0008091330710923307811181E00895AF9215
:1023D000BF92CF92DF92EF92FF920F931F93182F2D
:1023E00020933407CB01BA0148E10E94D201012FAA
:1023F000015080E692E165EA70E045E550E020E0BA
:1024000030E0EE24FF24CC24DD24AA24BB240E9447
:10241000D5068DE192E16BEA70E045E550E020E001
:1024200030E0012F0E94D5061F910F91FF90EF9091
:10243000DF90CF90BF90AF900895EF92FF920F93EF
:102440001F93DF93CF930F92CDB7DEB700E07E01ED
:102450000894E11CF11C11E480E090E0B7014FEF1B
:102460005FEF0E94C801882351F08981811711F024
:1024700011E009C0809134078F5F0E94E2001F5F66
:10248000193551F710E0809134078F5F60E00E94AA
:102490000501113069F407C080E090E0B7014FEF0B
:1024A0005FEF0E94C80189818835B1F70F5FD3CFF4
:1024B00002308CF6809133078F5F80933307CBCF48
:1024C0001F9311E40EC080E090E0612F40E050E0E7
:1024D0000E94AE01813021F4809134070E94E20015
:1024E0001F5F193584F38091340760E00E94050175
:1024F0000E949203039666E970E00E94A71282335D
:10250000910510F482E390E00E94E30511E4DBCF33
:10251000629FD001739FF001829FE00DF11D649FC7
:10252000E00DF11D929FF00D839FF00D749FF00D53
:10253000659FF00D9927729FB00DE11DF91F639FF4
:10254000B00DE11DF91FBD01CF0111240895AA1B93
:10255000BB1B51E107C0AA1FBB1FA617B70710F08E
:10256000A61BB70B881F991F5A95A9F780959095C0
:10257000BC01CD010895A1E21A2EAA1BBB1BFD01CF
:102580000DC0AA1FBB1FEE1FFF1FA217B307E40752
:10259000F50720F0A21BB30BE40BF50B661F771FAA
:1025A000881F991F1A9469F760957095809590958A
:1025B0009B01AC01BD01CF01089597FB092E0526B3
:1025C0000ED057FD04D0D7DF0AD0001C38F4509548
:1025D0004095309521953F4F4F4F5F4F0895F6F747
:1025E00090958095709561957F4F8F4F9F4F08957F
:1025F000FB01DC0102C001900D9241505040D8F720
:102600000895DC0101C06D9341505040E0F70895FA
:10261000FB01DC014150504048F001900D92002038
:10262000C9F701C01D9241505040E0F70895DC0108
:10263000CB01FC01E199FECF06C0FFBBEEBBE09AE7
:1026400031960DB20D9241505040B8F70895262FA3
:10265000E199FECF9FBB8EBB2DBB0FB6F894E29ADB
:0C266000E19A0FBE01960895F894FFCF98
:10266C00436865636B0003000000FF52656731002F
:10267C00526567320049444C4500FFFF019600C883
:10268C0000FA002C015E019001C201F401496E7444
:10269C004D6174680051436F6E734E42005150721D
:1026AC006F644E4200434F4D547800434F4D527867
:0226BC0000001C
:00000001FF
